:10084A0020204649524520414C4552542020200040
:10085A0020202053595354454D20004649524520E3
:10086A004F434355524544004D4F56452046524F3B
:07087A004D204558495400D0
:10080000C2B0C2901208D17BFF7A08794A1208AEB2
:100810007FC01208F97BFF7A08795A1208AE1208D5
:10082000EA3090E07F011208F97BFF7A08796512BF
:1008300008AE7FC01208F97BFF7A0879721208AE01
:0A0840001208EA1208EAD2B080BAEA
:1008D1007F381208F97F011208F97F101208F97F99
:0908E1000C1208F97F800208F9ED
:0E08F9008FA0C291C292D2931208EAC293223B
:0E0907008FA0D291C292D2931208EAC293221C
:0608AE008B088A09890A8B
:1008B400E4F50BAB08AA09A90A850B82758300121B
:0C08C4000881FF6007120907050B80E7A0
:0108D0002205
:0E08EA00E4FFFE0FBF00010EBE27F8BF10F5A1
:0108F80022DD
:03000000020915DD
:0C091500787FE4F6D8FD75810B02080025
:10088100BB010CE58229F582E5833AF583E022502C
:1008910006E92582F8E622BBFE06E92582F8E22276
:0D08A100E58229F582E5833AF583E4932290
:00000001FF
